:020000040800F2
:10000000586A00206102000897630008E157000861
:1000100095630008610F000891820008000000004D
:10002000000000000000000000000000A101000826
:100030009D1D000800000000FD0100083D7900083A
:100040007B0200087B0200087B0200087B0200089C
:100050007B0200087B0200087B0200087B0200088C
:100060007B0200087B0200087B0200087B0200087C
:10007000AD1B00087B0200087B0200087B02000821
:100080007B0200087B0200087B02000821110008A7
:10009000650F00087B0200087B0200087B02000855
:1000A0007B0200087B0200087B0200087B0200083C
:1000B000FD7900087B0200087B0200087B02000833
:1000C0007B0200087B0200087B0200087B0200081C
:1000D0007B020008597F00087B020008897F000826
:1000E0007B0200087B0200087B0200087B020008FC
:1000F0007B0200087B0200087B0200087B020008EC
:100100007B0200087B0200087B0200087B020008DB
:100110007B0200087B020008097A00087B020008C5
:100120007B020008B91B0008C51B00087B02000801
:100130007B0200087B0200087B02000849120008CD
:100140003D1200087B0200087B0200087B020008C9
:100150007B020008D11B0008DD1B0008B97F0008E6
:100160007B0200087B0200087B0200087B0200087B
:100170007B0200087B0200087B02000800000000F0
:100180007B0200087B020008DFF810D000F00CFCB6
:1001900000480047E1A50008AFF30080586A00203E
:1001A0002C4B19680868B0E8F04F80F30988BFF35A
:1001B0006F8F4FF0000080F311887047000000003F
:1001C00008480068006880F308884FF0000080F35A
:1001D000148862B661B6BFF34F8FBFF36F8F00DF35
:1001E00000BF00BF08ED00E0DFF80C00016841F43B
:1001F00070010160704700BF88ED00E0EFF30980F7
:10020000BFF36F8F134B1A681EF0100F08BF20ED5D
:10021000108A20E9F04F106009B44FF0500080F3CD
:100220001188BFF34F8FBFF36F8F0BF059FB4FF067
:10023000000080F3118809BC19680868B0E8F04F25
:100240001EF0100F08BFB0EC108A80F30988BFF3CE
:100250006F8F704748000020EFF305807047000063
:100260000648804706480047FEE7FEE7FEE7FEE750
:10027000FEE7FEE7FEE7FEE7FEE7FEE7ED790008B2
:10028000890100082DE9F05F0546002092469B4653
:1002900088460646814640241BE02846414647469C
:1002A000224600F062FA53465A46C01A914110D3D2
:1002B00011461846224600F049FA2D1A67EB01084C
:1002C0004F4622460120002100F040FA17EB0009BA
:1002D0004E41201EA4F10104DFDC484631462A4687
:1002E0004346BDE8F09F40EA01039B0703D009E0C5
:1002F00008C9121F08C0042AFAD203E011F8013B12
:1003000000F8013B521EF9D27047D2B201E000F86A
:10031000012B491EFBD270470022F6E710B51346A9
:100320000A4604461946FFF7F0FF204610BD2DE9A6
:10033000FE4F804681EA0300C00F0C46009021F07A
:10034000004123F00045B8EB0200A94105D2404628
:10035000214690461C460B46024623F000401043BF
:1003600047D0270DC7F30A00C3F30A510290401A81
:10037000019040286BDAC3F3130040F4801B00980F
:10038000924620B10023D2EB030A63EB0B0B0198DA
:100390005946C0F14002504600F0D8F906460D46D5
:1003A00050465946019A00F0F0F910EB08006141FF
:1003B000002487EA115284EAE7731A4340D0009A76
:1003C00062B3019A012A4FEA075215DC001B61EB68
:1003D00002014FF0004202EA0752CDE90042001C40
:1003E00041F5801132462B4600F027FA03B0BDE8F4
:1003F000F08F40462146F9E7001B61EB0201001C2B
:1004000041F5801300185B412018A2F5001747EB57
:10041000030140EAD570B6196D4111E06D084FEA4D
:10042000360645EAC0754FEA0752001B61EB020130
:10043000001C41F5801149084FEA30000019514174
:1004400032462B4603B0BDE8F04F00F0E7B9009804
:10045000012240000023D0EB020263EBE07300981E
:1004600021464FEAE074B8EB000061EB0401E9E7D4
:1004700083F000435BE781F0004158E72DE9FE4F30
:1004800081EA030404F0004421F0004100944FF09D
:10049000000B23F0004350EA01045ED052EA03044B
:1004A0005BD0C3F30A54C1F30A552C44A4F2F334CD
:1004B0000194A0FB0254C1F3130141F48011C3F372
:1004C000130343F4801301FB024400FB034E840A30
:1004D000970A44EA815447EA8357A4FB07680295C8
:1004E0008D0A05FB07854FEA932C04FB0C54270566
:1004F000029D4FEA065847EA1637B5EB08056EEB42
:10050000070C870E920E47EA811742EA8312A7FB77
:100510000201B6EB0B0164EB00042B0D43EA0C3334
:100520005E1844EB1C50DA465146E7FB0201C5F366
:1005300013044FEA0B3343EA14534FEA0432019C8D
:1005400043EA0603A4F10C040294009CCDE900B434
:1005500000F073F903B0BDE8F08F00200146F9E721
:100560002DE9F04D81EA030404F0004B21F0004531
:1005700014464FF0000A23F0004150EA050220D053
:1005800054EA01021DD0C5F30A570246C5F313030E
:10059000C1F31300C1F30A5640F4801543F48013ED
:1005A000A7EB0608101BD64608F2FD3873EB0500D2
:1005B00002D308F1010801E092185B41B8F1000F85
:1005C00003DA00200146BDE8F08D00204FF48011D1
:1005D000064684460EE0171B73EB050705D3121B76
:1005E00063EB050306434CEA010C49084FEA30006F
:1005F00092185B4150EA0107EDD152EA030012D094
:1006000082EA040083EA0501084305D0101BAB41D0
:1006100006D20122002306E000224FF0004302E050
:100620006FF0010253101AEB06004CEB085110EB6F
:100630000A0041EB0B01BDE8F04D00F0EFB80EB53C
:10064000C10F80EAE0700844CA07002140F233433A
:100650008DE80E000A460B4600F0EFF803B000BD2F
:1006600000F0004230F000400AD0C10D01F5607189
:10067000C0F3160042EA0151C20840071143704717
:10068000002001467047000030B5041E71F10004DF
:1006900004DB4FF00044404264EB0101141E73F18F
:1006A000000405DB1C464FF00043524263EB040399
:1006B0008B4208BF824230BD30B5041E71F1000488
:1006C00004DB4FF00044404264EB0101141E73F15F
:1006D000000405DB1C464FF00043524263EB040369
:1006E000994208BF904230BD01F0004330B421F080
:1006F000004150EA010206D00A0DA2F56072C1F372
:100700001301002A02DC30BC00207047440F44EA89
:10071000C104C100E01830BC00EBC25000F047B883
:1007200030B50B46014600202022012409E021FAC1
:1007300002F59D4205D303FA02F5491B04FA02F5BE
:100740002844151EA2F10102F1DC30BD202A04DB91
:10075000203A00FA02F1002070479140C2F12003D4
:1007600020FA03F3194390407047202A04DB203A13
:1007700021FA02F00021704721FA02F3D040C2F1C1
:1007800020029140084319467047202A06DBCB1708
:10079000203A41FA02F043EAE07306E041FA02F33C
:1007A000D040C2F120029140084319467047002909
:1007B000A8BF7047401C490008BF20F001007047E7
:1007C00010B4B0FA80FC00FA0CF050EA010404BF47
:1007D00010BC704749B1CCF1200421FA04F411FA9D
:1007E0000CF118BF012121430843A3EB0C01CB1DE1
:1007F0004FEA00614FEA102042BF002010BC704752
:1008000000EBC35010440029A4BF10BC7047401C2B
:10081000490008BF20F0010010BC704710B5141E3D
:1008200073F1000408DA401C41F1000192185B41A9
:100830001A4301D120F0010010BD2DE9F04D924680
:100840009B4611B1B1FA81F202E0B0FA80F2203297
:100850009046FFF77BFF04460F4640EA0A0041EA54
:100860000B0153465A46084313D0114653EA010080
:1008700019D0C8F140025046FFF777FF05460E46F3
:10088000504659464246FFF761FF084305D0012014
:1008900004E020463946BDE8F08D0020054346EAD5
:1008A000E0762C4337430A986305E40AA0EB08007E
:1008B0000022FD0A44EA47540A3002D500200146CE
:1008C000E9E7010510196941DDE9084500196941A9
:1008D000BDE8F04DA2E72DE9F04D00231A461B1AA2
:1008E0008A4103DB00200146BDE8F08DC1F30A52C6
:1008F000C1F3130141F480154FF0000BD10702D171
:1009000000186D41521E0027044640F2FF11384680
:1009100001EB620A3E468046024600204FF48011F9
:10092000FFF723FFC2197141BB1846EB0100B4EB7E
:10093000030C75EB000C04D3E41A65EB00051746B5
:100940000E46241908F101006D4180463428E3DD8C
:10095000F91946EB0600091BA84103D24FF0FF32FC
:10096000134601E0002213461BEB070046EB0A5139
:10097000BDE8F04DFFF752BFC1F30A52C1F31301B6
:1009800040F2FF3341F480119A4202DA002001461E
:10099000704740F233439A42A2F2334202DC5242A1
:1009A000FFF7E3BEFFF7D2BE064C074D06E0E06856
:1009B00040F0010394E8070098471034AC42F6D3A6
:1009C000FFF7E6FBDCCC0008FCCC00080EB540F2DB
:1009D000334102910021CDE900110A460B46FFF791
:1009E0002CFF03B000BD70B5C1F30A5201F0004501
:1009F0000024C1F3130140F2FF3341F480119A4205
:100A000001DA002070BD40F233439A42A2F2334231
:100A100003DC5242FFF7A9FE00E090402C43F1D0E6
:100A2000404270BD70B58C1810F8015B15F00703DB
:100A300001D110F8013B2A1106D110F8012B03E077
:100A400010F8016B01F8016B5B1EF9D12B0705D47F
:100A50000023521E0DD401F8013BFAE710F8013BC8
:100A6000CB1A921C03E013F8015B01F8015B521EE4
:100A7000F9D5A142D8D3002070BD000010B50021E7
:100A80000A4804F017FB0421084804F013FB08216E
:100A9000064804F00FFB0C21044804F00BFBBDE8F2
:100AA00010400821024804F005BB0000D8030020D4
:100AB000200400200349B1F90810814201DD00F54E
:100AC00000507047F45E0020884201DA00F50050C3
:100AD0007047000070B5224C224DB4F90200B5F900
:100AE0000010401A00F57A60B0F5FA5F34D9B5F914
:100AF0000410204601F0DAFAB4F90810884214D143
:100B0000A88800F5805001B2204601F0D7FAB4F968
:100B10000C00B4F90810884201DA00F5005060803A
:100B2000B5F9040000F580500FE0B5F904100C4849
:100B300001F0C4FAB4F90C00B4F90810884201DAE3
:100B400000F500506080B5F90400FFF7B3FF68803E
:100B500005484169494241616088288070BD0000B4
:100B6000F45E0020505D0020A001002030B50C464E
:100B700005000CD0022C0AD90548A11E028828467F
:100B800001F0BCFB291901F8020D000A487030BDC4
:100B90007401002030B50C4605000AD0022C08D99B
:100BA000601E81B2FF22284601F0BEFB291901F820
:100BB000010C30BD01221021014803F09DBA000054
:100BC0000000024000221021014803F095BA000005
:100BD0000000024001221146014803F08DBA0000D6
:100BE0000004024000220121014803F085BA000000
:100BF000000402407CB5002500950195FFF7E2FF57
:100C0000922000F061F906226946122000F03EF9B8
:100C1000FFF7D0FF9DF801009DF80010434C41EA1A
:100C2000002020809DF803009DF8021041EA00207A
:100C300060809DF805009DF8041041EA0020A08026
:100C4000FFF7D0FF08226946002000F01FF9FFF7E8
:100C5000C1FF9DF800000F281AD19DF803009DF8F0
:100C6000021041EA0020618B401AE0819DF80500E6
:100C70009DF8041041EA0020A18B401A20829DF8C3
:100C800007009DF8061041EA0020E18B401A6082BF
:100C9000FFF798FFA22000F017F9022269462220F0
:100CA00000F0F4F8FFF786FF9DF800009DF80110B2
:100CB000C00040EA5110B0F5806F01DBA0F5006084
:100CC000A081B4F912101331262900D8658200EEF4
:100CD000100AB4EE001AF8EEC00AB3EE070A00EEEE
:100CE000810A84ED0A0AB4F90E0000EE100A1048D9
:100CF000F8EEC00A90ED000A60EE800AC4ED0B0A1F
:100D0000B4F9100000EE900AF8EEE00A60EE800AF6
:100D1000C4ED0C0AB4F9120000EE900AF8EEE00AF5
:100D200020EE800A84ED0D0A7CBD0000405E0020AC
:100D3000F40000207CB5002000900646394C4FF4AA
:100D400096750190FFF73EFF922000F0BDF8062255
:100D50006946122000F09AF8FFF72CFF9DF8010079
:100D60009DF8001041EA0020A18A0844A0829DF865
:100D700003009DF8021041EA0020E18A0844E08265
:100D80009DF805009DF8041041EA0020218B0844DD
:100D90002083FFF727FF08226946002000F076F83D
:100DA000FFF718FF9DF803009DF8021041EA0020AC
:100DB000618B084460839DF805009DF8041041EAAA
:100DC0000020A18B0844A0839DF807009DF8061021
:100DD00041EA0020E18B0844E083052000F030F870
:100DE000761CAE42AEDBB4F9140090FBF5F0A082A5
:100DF000B4F9160090FBF5F0E082B4F9180090FB0E
:100E0000F5F02083B4F91A0090FBF5F06083B4F993
:100E10001C0090FBF5F0A083B4F91E0090FBF5F0E8
:100E2000E0837CBD405E002030B504464FF47A7507
:100E300002E0284600F004F8641EA4B2F9D230BDE6
:100E400070B54FF080440022E56A54214843616A3E
:100E5000636A8B42FCD002D2A1EB030102E0A5EB56
:100E6000030631440A4419468242F1D370BD70B57D
:100E700009F050F8054609F0D5F840EA05040A20C3
:100E800002F07EFFFFF756FF204670BD70B5144696
:100E90000D4640F0800000F017F806E0552000F005
:100EA00013F8641E05F8010BE4B2002CF6D170BDF6
:100EB00010B50C4640F0800000F006F8552000F018
:100EC00003F8207010BD000001B582B04FF47A70B5
:100ED0000090012301AA02A9024803F04BFD9DF8EE
:100EE00004000EBD8003002010B50C46FFF7ECFF98
:100EF0002046BDE81040FFF7E7BF0000034A136833
:100F0000D862D0601068C1637047000020040020E0
:100F1000104842F21071B0F904300F488B4202DDE4
:100F2000C168491CC160016901290CDB491C002210
:100F30000161142902DD0261C260704707498B42DA
:100F4000F9DD41607047C1680A29FBD101210161C7
:100F500070470000245F0020E801002060F0FFFFE0
:100F6000FEE70000014802F006BA0000E00200209F
:100F700030B589B0002108200291CDE9031080012D
:100F800000902148214CC289130A8DF818308DF841
:100F90001920C28C130A8DF81A308DF81B20C28FCD
:100FA000130A8DF81C308DF81D20B0F85600020A87
:100FB0008DF81E208DF81F002170154D286800281F
:100FC00005DD08AB06AA6946124802F06BF800205E
:100FD0000CE0401C322806DD08AB06AA69460D4825
:100FE00002F060F800202968002902DD217800293C
:100FF000EFD003F087F8E169401A606003F082F8EF
:10100000E06109B030BD0000945E0020C8000020FF
:10101000A4020020E002002070B58AB00020082160
:101020000290CDE903011A4C40F2FF210690009195
:1010300007902070174D2868002805DD08AB06AA28
:101040006946154802F02EF800204FF4FA760CE0BD
:10105000401CB04206DB08AB06AA69460E4802F007
:1010600021F800202968002902DD21780029EFD02D
:1010700003F048F8216A401AA0600A2802DD606A7D
:10108000401C606203F03EF820620AB070BD0000B0
:10109000C8000020A4020020E002002030B589B082
:1010A000002008210290CDE9030140F2FF110091D8
:1010B0001749184CC98907900A0A8DF818208DF82D
:1010C00019108DF81A008DF81B002070124D286839
:1010D00000280FDD08AB06AA6946104801F0E2FFC0
:1010E00008E008AB06AA69460C4801F0DBFF286857
:1010F000002802DD20780028F3D003F003F8A16A6D
:10110000401AE06002F0FEFFA06209B030BD0000AE
:10111000F45E0020C8000020A4020020E0020020AD
:10112000014802F028B90000E0020020F0B53C4878
:101130003C4B082440690021B3F86420A0F50075F9
:1011400089B0113D0BD0012537483C2A4DD016DC23
:101150002D2A18D0322A44D0372A14D143E04FF434
:101160000470009002916420CDE903144243100AF8
:101170008DF818008DF819208DF81A101FE0502AEC
:1011800035D0642A35D005600291CDE9031440F2D0
:1011900027440094254C00EE102A24788DF818403E
:1011A00000788DF81900B8EE400AD3ED1B0A30EE36
:1011B000600ABCEEC00A10EE100A8DF81A001C4D31
:1011C0008DF81B10079129701A4E3068002805DD34
:1011D00008AB06AA6946184801F064FF002464279A
:1011E00018E00225CFE70325CDE70425CBE7052549
:1011F000C9E70625C7E7306800280EDD641C94FBAC
:10120000F7F007FB104028B908AB06AA69460A4860
:1012100001F048FF28780028EDD009B0F0BD0000AB
:101220006C5F0020685D0020C4020020C002002026
:10123000C8000020A4020020E0020020014802F0C3
:101240009AB8000008030020014802F094B800009A
:101250000803002030B589B0002008210290CDE9B4
:1012600003018901009119498DF818008DF81900C2
:10127000C989184C0A0A8DF81A20154A8DF81B10D6
:10128000D1890B0A8DF81C308DF81D10D18C0A0AFB
:101290008DF81E208DF81F1060700F4D28680028F3
:1012A0000FDD08AB06AA69460C4801F0FBFE08E01A
:1012B00008AB06AA6946094801F0F4FE2868002830
:1012C00002DD60780028F3D009B030BD245F002033
:1012D0003C5F0020C8000020A80200200803002076
:1012E0000A8852BA12B282814B885BBA03808B881B
:1012F0005BBA83808979C180B0F9081019B18A423C
:1013000001DA02F5005242807047000070B52048B3
:10131000012500240562C0E906450460446084603C
:10132000C4600E264461466201460461503801F0F3
:1013300027FF1748503802F011FB1548022150389A
:1013400001F09EFE12480121503801F099FE10482C
:10135000283001460562C0E90645046044608460A7
:101360004661C46046620461503801F009FF0848D4
:10137000283802F0F3FA06480221283801F080FEEE
:10138000BDE8704002480121283801F079BE000014
:101390003003002010B51049B0F902200B6913B9D1
:1013A00001230B618A61B0F91230D41A0A4BB4F5EB
:1013B000805F5B6901DB5B1E05E014F5805F01DD8A
:1013C0004B6901E05B1C4B61896902EB4333591A9D
:1013D0004161428210BD0000C80000202DE9F041AB
:1013E000494F00202DED068BB86148484849494CCB
:1013F00090ED000AD1ED000A474D484E30EE200A2C
:1014000084ED000A90ED010AD1ED010A30EE200AC8
:1014100084ED010AB5F90200B6F90210401AFFF78F
:101420000EF99FED3F8B53EC182BFFF727F89FED3C
:101430003E9B53EC192BFFF721F8FFF755F99FED71
:101440003CAA00EE100A3B48F0EE4A0A05F020F9EB
:1014500084ED020A97ED050AD4ED000A3648B8EE8D
:10146000C01AB8EEC00A60EE810AC4ED000AD4EDDD
:10147000010A20EE800A84ED010A408A410615D552
:10148000B5F90200B6F90210401AFFF7D8F853EC8C
:10149000182BFEF7F3FF53EC192BFEF7EFFFFFF7C6
:1014A00023F900EE100AF3EE040A19E0000602D454
:1014B00094ED020A1BE0B5F90200B6F90210401AD9
:1014C000FFF7BDF853EC182BFEF7D8FF53EC192BA0
:1014D000FEF7D4FFFFF708F900EE100AFBEE040A4E
:1014E000144805F0D5F8B1EE400A84ED020AB0EEDA
:1014F000C00A10EE100A1149884201DA84ED02AAEE
:10150000BDEC068BBDE8F081A00100204066002004
:101510004C6600203C5D0020F45E0020505D002001
:10152000000000000000203F000000000080764026
:1015300000000000E4630020285E00200000484313
:101540009FED1E0A1E49002201EB4200B0F90C007B
:10155000002801DB034600E0434200EE903AF8EE3B
:10156000E00AF4EEC00AF1EE10FA06DD002800DA17
:10157000404200EE100AB8EEC00A521C042AE3DB17
:1015800010EE100A0F4A904216DD00209FED0E1A51
:10159000C1EE000A01EB4002401CB2F90C300428F5
:1015A00000EE103AB8EEC00A20EE800ABDEEC00A86
:1015B00010EE103A9381EDDB704700000000000050
:1015C0003C5D002000D0044600D0044610B5434CDA
:1015D00000239FED435A9FED436ADFED435ADFED51
:1015E000436A9FED437A00BF03EB830004EB0012D4
:1015F000104605F0E9F8F0EE462AF0EE651A1046BE
:101600000021F0EE454AB0EE624AF7EE003AB0EE45
:10161000613AB0EE662AB7EE001AF0EE470AB2EE73
:10162000000A05F0FFF85B1C042BDDDB314805F0F8
:10163000CBF8F0EE651A9FED316A9FED310A022179
:10164000F0EE454AB0EE614AF7EE003A9FED2A3AD5
:10165000F0EE612AB0EE462AB0EE401AF0EE450AEE
:10166000244805F0DFF8274805F0AEF8264805F0D5
:10167000ABF8DFED265A0221F0EE454AB0EE654A9E
:10168000F7EE003AB0EE653AF0EE652AB0EE462A83
:10169000F0EE651AB0EE451AF0EE450AB7EE000A14
:1016A000184805F0BFF8BDE810400221F0EE454AA9
:1016B000B0EE654AF7EE003AB0EE653AF0EE652A14
:1016C000B0EE462AF0EE651AB0EE451AF0EE450A85
:1016D000B1EE040A0C4805F0A5B80000845F0020B4
:1016E0000000000000409C4500007A460000FA43DC
:1016F000CDCCCC3DE463002000C0DA450000484278
:101700000000C842C46000201461002000401C4654
:10171000114810B5B0F870103C291BD2104ADFED0B
:101720000F0A002000EE101A02EB4003401CB8EE36
:10173000400AB3F90C40042880EE201A00EE104A4B
:10174000B8EEC00A21EE000ABDEEC00A10EE104A43
:101750009C81E7DB10BD0000685D00200000704246
:101760003C5D002070EE201A134871EE811AFDEEE8
:10177000E11A11EE901A70EEC01A818171EE811A91
:10178000FDEEE11A11EE901AF1EE401A30EE600A09
:1017900071EEE01AC18130EE010A71EE811ABDEEE0
:1017A000C00AFDEEE11A11EE901A018210EE101A35
:1017B0004182FFF7C5BE00003C5D002006490020C5
:1017C0009FED060A8861064880ED000A80ED010A57
:1017D00080ED020A70470000A00100200000000018
:1017E0003C5D00200C48006800280CDD0B48406977
:1017F000A0F50071113904D0B0F5407F0BD100F095
:1018000011B800F053B80648B0F9080010F5167F7B
:1018100001DDFFF77DBF7047AC0200206C5F002048
:10182000285E0020F0B51C491C4A002548681C4C65
:10183000904200DA65601B4801271B4EB0F9080092
:1018400010F5167F0BDDC4E90175FFF761FFE06855
:10185000401CE060322801DD3560E560F0BD606865
:1018600078B1A068401CA0603C2806DB91ED020A1C
:10187000B5EEC00AF1EE10FA01D1FFF749FF37606B
:10188000F0BDA560FFF744FF2069401C20613228AD
:10189000F6DD35602561F0BD6C5F00200000704111
:1018A000A0010020285E0020C0020020364810B5AC
:1018B000B0F9082001210023344812F5167F02DD1B
:1018C0000370416004E042680AB1017000E00370F7
:1018D0002F4A3049B7EE000AD2ED040A10EE904AC2
:1018E000B4F1834F02DA436003701AE00378C3B1A6
:1018F000012B15D180ED0C0A5FF0000001EB4003D5
:10190000401CB3F90C20042800EE902AF8EEE00AFF
:1019100060EE800AFDEEE00A10EE902A9A81EDDB7F
:1019200010BDB2EE041A70EEC11AD2ED000A30EE0C
:10193000C11AC1EE810A10EE902AC0ED0C0AB2F174
:101940007E5F02DB80ED0C0A07E0F5EEC00AF1EEE7
:1019500010FA02D29FED100AF4E7D0ED0C0A002233
:1019600001EB4200521CB0F90C30042A00EE103A90
:10197000B8EEC00A20EE200ABDEEC00A10EE103A02
:101980008381EDDB10BD0000285E0020A001002057
:101990006C5F00203C5D0020000000002DE9F0415C
:1019A000724FDFF8CC812DED0A8B9FED72AB9FED6E
:1019B000739BB7F90210B8F90400724C081AFEF7CD
:1019C0003EFE53EC1A2BFEF759FD53EC192BFEF794
:1019D00055FD41EC100B84ED100B9FED6B1B53EC90
:1019E000112BFEF751FE09D894ED100B53EC192B77
:1019F00051EC100BFEF79BFCC4E910019FED648BCA
:101A000094ED100B53EC182B51EC100BFEF736FD38
:101A100041EC100B07F0CCF85F4DB0EE40BAF0EEA1
:101A200060BA2868FEF71CFE53EC1B2BFEF726FD60
:101A300094ED100B41EC1B0B53EC182B51EC100BDD
:101A4000FEF71CFD41EC100B07F016F9B0EE40CA92
:101A5000F0EE60CA6868FEF703FE53EC1C2BFEF73D
:101A60000DFD53EC1B2BFEF762FCFEF73DFE4B4ECB
:101A700053EC182B306094ED100B51EC100BFEF76B
:101A8000FDFC41EC100B07F0F7F8B0EE40BAF0EEB9
:101A900060BA2868FEF7E4FD53EC1B2BFEF7EEFC62
:101AA00094ED100B41EC1B0B53EC182B51EC100B6D
:101AB000FEF7E4FC41EC100B07F07AF8B0EE408A38
:101AC000F0EE608A6868FEF7CBFD53EC182BFEF74A
:101AD000D5FC53EC1B2BFEF7CBFCFEF705FE70602C
:101AE000B7F90210B8F90200D4ED090A081A00EE9D
:101AF000100AB8EEC00A30EE200A10EE100AFEF707
:101B0000AFFD53EC1A2BFEF7B9FC53EC192BFEF783
:101B1000B5FCFEF7E9FD00EE100ADFED210A2148D1
:101B200004F0B6FD86ED020A1F4894ED090AD4EDD3
:101B30000A0A90ED001A00EE810A84ED090A94ED7C
:101B4000071AB4EEC10AF1EE10FA06DC94ED081A99
:101B5000B4EEC10AF1EE10FA03D2B1EE600A84EDE0
:101B60000A0ABDEC0A8BBDE8F0810000F45E00209B
:101B7000505D0020000000000000203F0000000039
:101B800000807640A001002000000000000000005E
:101B9000000000A046DF913F406600203C5D002031
:101BA00000000000E4630020A0020020014801F0D2
:101BB00075BF00003C060020014801F06FBF000027
:101BC0009C060020014801F069BF00007C05002050
:101BD000014801F063BF0000FC060020014801F04D
:101BE0005DBF0000DC05002001681823CAB2103A6E
:101BF000B2FBF3F2054B6FF30901032A9B5CC3654B
:101C000000D9091D8165084670470000FCC6000820
:101C100010B5014600208B698A6A4FF0C07453B139
:101C2000B3F5005F15D072B1012A0CD0022A0AD098
:101C3000032A09D104E01AB1012A06D0022A03D1ED
:101C4000C96AC90100D5012010BDC96AA142FAD0F4
:101C500010BD002AF7D0012AF2D0022AF3D0032ABD
:101C6000F3D010BD30B50468256825F480252560C3
:101C7000046863608368402B036803D09960006840
:101C8000C26030BD9A600068C16030BD28496422DE
:101C90004A610278437842EA0322C2F30A02A2F5BB
:101CA00080620A8042788378D20842EA4312C2F303
:101CB0000A02A2F580624A808278C378920942EAD9
:101CC0008302037942EA8322C2F30A02A2F5806208
:101CD0008A8002794379520842EAC312C2F30A02A7
:101CE000A2F58062CA80027C437C42EA0322C2F3EE
:101CF0000A02A2F580620A81427992098A724279C7
:101D0000C2F30112CA728279C37942EA03228A813C
:101D1000027A437A42EA0322CA81027B0A74427B36
:101D20004A74827BC07B42EA0020488270470000F0
:101D3000285E0020154801684A6942F040024A6165
:101D40000068C16841F01001C160114801680A686B
:101D500022F001020A6001680A68D207F7D102681E
:101D60000C49916002680C49D1600268243111610C
:101D700002682421516001680A6842F480220A60E6
:101D80000068016841F0010101607047F40400201F
:101D90003C06002004480040985000207047000096
:101DA0002DE9F04F4FF48874DDE90975DDE90DA6E2
:101DB000DDE90BB90480254CB4F808C0A0F802C0D6
:101DC000A4898480002406E000EB0408641C88F8E1
:101DD00006C0032C04DA11F804C0BCF1000FF3D1E3
:101DE000417A41F0380162F302014172B0F8091002
:101DF00063F38911A0F80910817A67F38501817274
:101E0000B0F80D2069F30902A0F80D20C2896AF329
:101E10008C02C281B0F80F1066F34F11A0F80F10BA
:101E200042896BF38E124281B0F80B101E2262F3CE
:101E3000CF11A0F80B100021431815F8012B491CF5
:101E40005A751E29F8DBBDE8F08F00008C010020D8
:101E50002DE9F04740F20114DDE90A65DDE9087972
:101E6000DDF830A004801C4CB4F808C0A0F802C013
:101E7000A4898480002406E000EB0408641C88F830
:101E800006C0032C04DA11F804C0BCF1000FF3D132
:101E900010F8091F21F03801103162F302010170BE
:101EA000018863F389110180417867F385014170EE
:101EB000828869F309028280B0F8051066F38C010C
:101EC000A0F80510C18865F34F11C18002896AF33B
:101ED00009020281BDE8F0878C0100202DE9F04F56
:101EE00040F20114DDE90D65DDE90BA7DDE9099B91
:101EF0000480214CB4F808C0A0F802C0A4898480F2
:101F0000002406E000EB0408641C88F806C0032CDB
:101F100004DA11F804C0BCF1000FF3D110F8091F66
:101F200021F03801283162F302010170018863F366
:101F300089110180427869F385024270818867F3D4
:101F400009018180B0F8051066F38C01A0F8051036
:101F5000C18865F34F11C180B0F8012010EE101A4E
:101F60006AF38E12A0F8012042886BF3CF124280F0
:101F70008160BDE8F08F00008C0100202DE9F04F5A
:101F800040F20114DDE90D65DDE90BA7DDE9099BF0
:101F900004801E4CB4F808C0A0F802C0A489848054
:101FA000002406E000EB0408641C88F806C0032C3B
:101FB00004DA11F804C0BCF1000FF3D110F8091FC6
:101FC00021F03801303162F302010170018863F3BE
:101FD00089110180427869F385024270818867F334
:101FE00009018180B0F8051066F38C01A0F8051096
:101FF000C18865F34F11C180B0F801206AF38E12D9
:10200000A0F80120C0F808B0BDE8F08F8C010020D6
:102010002DE9F04F40F20114DDE90C65DDE9099787
:10202000DDF838B0DDF82CA004801F4CB4F808C0EF
:10203000A0F802C0A4898480002406E000EB040814
:10204000641C88F806C0032C04DA11F804C0BCF143
:10205000000FF3D110F8091F21F0380162F30201DB
:102060000170018863F389110180427869F3850268
:102070004270818867F309018180B0F805206AF316
:102080008C02A0F80520C18866F34F11C180B0F81A
:10209000091065F38C01A0F8091042896BF34F1207
:1020A0004281BDE8F08F00008C01002001F58050D6
:1020B000B0F5005F01DBA1F58050704710B5044614
:1020C00001F580500A46B0F5005F01DBA2F58050B3
:1020D000208101B21046FEF7F7FC608110BD72B698
:1020E000FEE70000002229B101291AD002291BD0E5
:1020F0004FF440720E490B6823F440730B600B6879
:1021000013430B600A6822F0F8020A600A6802238F
:1021100003EBC00002430A60086840F480300860A6
:1021200070474FF48072E5E74FF40072E2E7000079
:10213000103C02401348016889050FD5016821F45D
:1021400000710160016841F400610160016821F4DF
:1021500000610160016841F4007101600168490596
:102160000FD5016821F480610160016841F480515C
:102170000160016821F480510160016841F48061CF
:1021800001607047003C024008490A6822F440722E
:102190000A600A6842F004020A600A684FF4803359
:1021A00043EA002002430A6070470000103C0240EE
:1021B000064A136823F440731360136813601368AE
:1021C00043F001031360017070470000103C0240AF
:1021D000094910B50C6824F440740C600C6844F490
:1021E00040740C600C6844F001040C600260BFF3A2
:1021F0006F8F436010BD0000103C0240074A136817
:1022000023F440731360136843F4807313601368FE
:1022100043F001031360018070470000103C02404E
:10222000074A136823F440731360136843F4007380
:102230001360136843F001031360016070470000EE
:10224000103C024017490868C206174805D5C26904
:1022500042F01002C26110220A600A68920605D597
:10226000C26942F00802C26120220A600A6852066E
:1022700005D5C26942F00402C26140220A600A68C0
:10228000120605D5C26942F00202C26180220A60CC
:102290000A68920705D5C26942F02002C261022095
:1022A000086070470C3C0240A407002070B511493B
:1022B00004460020C86101F025FF06460E4D09E0E6
:1022C000601C07D024B101F01DFF801BA04201D982
:1022D000032070BD2868C003F2D42868C00701D06D
:1022E00001202860286810F0F200F2D0FFF7AAFF62
:1022F000012070BDA40700200C3C024010B558B16D
:10230000084C491E0BD310F8013B5340DBB234F8A4
:10231000133083EA1222F4E74FF6FF7010BD104627
:1023200010BD00001CC8000810B5064C04E000BF3A
:1023300010F8013B5340E25C491E89B2F8D21046C6
:1023400010BD00001CC700082DE9F041534E2DEDD3
:10235000048B708AC1079FED528ADFED528A9FED90
:10236000529ADFED529A524D524C4FF4FA670CD00C
:10237000810601D5810408D54D483C3008F036FF70
:10238000D5ED0D0A38EE601A0DE0810713D58106F0
:1023900001D581040FD546483C3008F027FFD5ED24
:1023A0000D0A38EEE01A42483946643041EE000A20
:1023B000C4ED000A22E0C10706D0810604D58104DD
:1023C00002D484ED009A16E0810706D5810604D573
:1023D000800402D4C4ED009A0DE03548643008F062
:1023E00005FFF7EE000A30EEC00AD5ED0D0A20EE2B
:1023F000200A84ED000A2E4839463C3008F012FFCE
:10240000708A41070CD5810601D5810408D528487A
:10241000503008F0EBFED5ED0E0A38EEE01A0DE074
:10242000010713D5810601D581040FD5204850300E
:1024300008F0DCFED5ED0E0A38EE601A1C4839466D
:10244000643041EE000AC4ED010A18E0410706D5E8
:10245000810604D5810402D4C4ED019A0CE0010781
:1024600006D5810604D5800402D484ED019A03E0E8
:102470009FED110A84ED010A0D483946503008F0ED
:10248000D1FE94ED000A85ED0D0A94ED010A85ED6B
:102490000E0ABDEC048BBDE8F0810000285E002030
:1024A00000C0DA4500C0DAC50000FA430000FAC3F4
:1024B000180200204C6600200000000070B514488F
:1024C00013490022807AC97A124B022801D10229CD
:1024D00007D0114801240225C668322E03DD04709E
:1024E00005E01A7070BD16F1320F01DA0570C26096
:1024F000012902D00678022E00D11D70022902D0D7
:102500000078012800D11C700329EAD070BD0000BA
:10251000285E0020D9020020180200201748B0F9D8
:102520000210494200EE101A1749F8EEC00A9FED5A
:10253000140A80EE801ADFED130A21EE201A81EDD5
:10254000001AB0F90020524201EE102AF8EEC11A2A
:1025500081EE801A61EE200AC1ED010AB0F9040093
:1025600000EE900AF8EEE00A80EE801A9FED070A6E
:1025700021EE000A81ED020A70470000285E00206B
:102580000000254400C0DA45406600200080BB44BE
:10259000F0B51948194A01234768002114684FF41F
:1025A000487540F2B636322F03DD65634160416104
:1025B00005E017F1320F02DA666343614160104CA7
:1025C000B4F90840B4F5167F01DD036102E0076944
:1025D000012F0FD1641E632C0CD2446914B1012C5D
:1025E00004D006E012685663436102E01268556346
:1025F00041610161F0BD000018020020D8030020F5
:10260000285E00200D4A0E491046937AC07A022BAC
:1026100001D1022809D00223012808D0032801D0C3
:10262000527C32B10320087070470020FBE70B702A
:10263000F6E70228F8D10B7070470000285E0020F2
:10264000D8020020164810B5418A1648CA044FF037
:10265000000308D502468C06526801D5521E00E0E0
:10266000521C426000E043604A040AD50D4A8C06C1
:10267000926801D5521E02E00B4C521C23708260FE
:1026800000E083608A0408D58A060649C96801D536
:10269000491E00E0491CC16010BDC36010BD0000B0
:1026A000285E0020180200208C01002070B5384BF5
:1026B000384A00219D7A01243748022D02D1DE7A62
:1026C000022E04D08668322E03DD147005E01170EE
:1026D00024E016F1320F01DA117081608669032E51
:1026E00009D1012D07D11678012E01D016B102E0D3
:1026F000117000E0147085611278012A0ED1274A0A
:10270000022D01D01D7CA5B115686D1C1560244AF1
:10271000012D10D0642D01DD022515705D8A214B3D
:10272000EE051A6815D5AE0613D4056A012D0CD036
:102730000DE01160F2E714701B4AC56952692A4422
:102740001A4D2A601A4A1460E8E7521C1A600162A6
:102750000BE00462EE0508D5AD0606D5446A012CEF
:1027600001D1521E1A60416200E04462114991EDAC
:10277000240ABDEEC00A10EE101A8162C26A9142AC
:1027800004D00D4A13685B1C1360C16270BD000069
:10279000285E0020DA02002018020020B00200208B
:1027A000D0020020C8020020245F0020B8020020D0
:1027B000B4020020685D0020BC0200202DE9F04733
:1027C0005B4CA07A022870D1E07A02286DD1B4F96E
:1027D00000105848814268DAB4F90210814264DA84
:1027E000B4F90410B1F5167F5FDDB4F9061081422B
:1027F0005BDA4FF47A7564212846FEF77FFB6E1092
:10280000304601F0BDFA4FF4487964214F464846FE
:10281000FEF774FB304601F0B3FA00213846FEF7AC
:102820006DFB64212846FEF769FB304601F0A8FAEB
:1028300064213846FEF762FB304601F0A1FA002120
:102840003846FEF75BFB3C4FDFF8F08007E000BF47
:10285000B7F90C100220C8F8001001F091FAA07A24
:102860000328F5D164212846FEF748FBB2463046DE
:1028700001F086FA00212846FEF740FB464605E0B7
:10288000B7F924007060022001F07AFAA07A0128DA
:10289000F6D164212846FEF731FB504601F070FA6C
:1028A00000212846FEF72AFB06E03FE0B7F92400A6
:1028B000B060022001F064FAE07A0328F6D16421C6
:1028C000A8462846FEF71AFB5546504601F058FA2E
:1028D00000214046FEF712FB06E000BFB7F92400D6
:1028E000F060022001F04CFAE07A0128F6D1642170
:1028F0004046FEF703FB284601F042FA64214C46AD
:102900004846FEF7FBFA284601F03AFA0021204635
:10291000FEF7F4FA0A4C0121204607F0AFFC2046EE
:10292000BDE8F0470422054907F0C4BCBDE8F087C4
:10293000285E0020A8FDFFFFF45E0020E05000208C
:1029400000000A0870B51B4C002004222060606063
:10295000A060E0602146184807F0A5FC60680028E8
:1029600026D1A068002823D1E068002820D1206863
:1029700000281DD14FF47A7464212046FEF7BEFA78
:102980006510284601F0FCF96421CE003046FEF7C0
:10299000B5FA284601F0F4F964212046FEF7AEFAB4
:1029A000284601F0EDF900213046FEF7A7FAFEE7D0
:1029B00070BD0000E050002000000A082DE9F0473B
:1029C0004C4D2DED028BB5F9060000EE100AB8EE65
:1029D000C00A9FED491AB5F90E00C0EE010A00EEDB
:1029E000100AB8EEC00A9FED458A454CDFF81491F5
:1029F00080EE081A30EEC10AD4ED020A30EE200A49
:102A0000D9ED020A30EE200A84ED020AD4ED030A61
:102A1000B4EEE00AF1EE10FA09DCD4ED040AB4EEEB
:102A2000E00AF1EE10FA02D3D4ED020A01E0C4ED9F
:102A3000020A354EB6F91A0000EE100A3348B8EE15
:102A4000C00A03F025FE314FDFF8C480503FF0EE9E
:102A5000400A87ED1D0AB8F91000DFED2E8A4042CA
:102A600000EE100A2C48B8EEC00A20EE280A03F047
:102A70000FFEBDEEC00ADFED2A1A10EE100AF08438
:102A8000264890ED000AB5F9040000EE900AB5F969
:102A90000C00F8EEE00A80EEA11A00EE900A38462B
:102AA000F8EEE00AC0EE881A71EE210A99ED011ADB
:102AB00070EE600A70EE810AC4ED050A03F0E8FDCD
:102AC00087ED090AB8F91200F0EE400A00EE100A8C
:102AD0001148B8EEC00A503820EE280A03F0D8FD9D
:102AE000BDEEC00A10EE100AF081BDEC028BBDE80D
:102AF000F0870000285E0020000048420000C84225
:102B0000505D002014660020F45E0020B4610020B7
:102B1000405E0020CDCCCC3D54620020D402002089
:102B2000000016442DE9F05FDFF8D891764F4FF0A2
:102B3000010B2DED028BB9F81200C104B7F91A0090
:102B4000DFED728A724DDFF8CC814FF0000A9FED05
:102B5000728A724E724C20D5316839B900EE100A73
:102B6000B8EEC00A84ED020AC6F800B000EE100A02
:102B7000D4ED020A6B48B8EEC00A03F089FD85ED7A
:102B80001D0AB8F91000F0EE400A00EE100A66487F
:102B9000B8EEC00A20EE080A43E0B9F90620B9F9F8
:102BA0000E10524200EE102AB2EE041AB8EEC00A1D
:102BB000C0EE280A00EE101AB8EEC00AC0EE011AE4
:102BC00030EEA10AD4ED020A30EE200A84ED020AAA
:102BD000D4ED030AB4EEE00AF1EE10FA06DCD4ED0F
:102BE000040AB4EEE00AF1EE10FA01D2C4ED020AD2
:102BF00000EE100A4648C6F800A0D4ED020AB8EE6E
:102C0000C00A503003F044FD85ED1D0AB8F91000EC
:102C1000F0EE400A00EE100A4448B8EEC00A20EE7A
:102C2000080A503003F034FDBDEEC00A494610EEEC
:102C3000100AF884B9F81200C2043D4829D5716819
:102C400029B990ED000A84ED050AC6F804B090EDAC
:102C5000000A3448D4ED050A503803F019FD85ED1B
:102C6000090AB8F91200F0EE400A00EE100A2E48E8
:102C7000B8EEC00A20EE080A03F00AFDB1EE400AE1
:102C8000BDEEC00A10EE100AF881BDEC028BBDE863
:102C9000F09FB1F904209FED271A00EE102AB9F930
:102CA0000C10B8EEC00AC0EE010A00EE101AB8EE21
:102CB000C00A80EE281A30EE810AD4ED050A70EEC3
:102CC000C00AC4ED050A90ED000A114803F0E0FCCB
:102CD00085ED090AB8F91200F0EE400A00EE100A7C
:102CE0001248B8EEC00A20EE080A03F0D1FCB1EE9B
:102CF000400ABDEEC00A10EE100AF881C6F804A022
:102D0000C3E70000285E0020F45E00200000C842F7
:102D100064610020405E0020CDCCCC3D000200204C
:102D2000505D0020F4620020446300200462002013
:102D3000D40200200000164470B5FFF73FFD39486B
:102D400003F042FD3748503003F03EFD364803F0B3
:102D50003BFD3548503003F037FDFFF7F3FD334DB1
:102D6000288801B23248FFF7A9F9A88801B2304893
:102D70001830FFF7A3F92E4E6868B6F92010FDF75A
:102D8000A3FE00EE100A2B4CB8EEC00A84ED020A36
:102D9000B6F92010A868FDF797FE00EE100AB8EE0D
:102DA000C00A84ED030AB6F92010E868FDF78CFE2E
:102DB00000EE100AF8EEC00AC4ED040A94ED030A0E
:102DC000B4EEE00AF1EE10FA0CD284ED040AB6F982
:102DD0002010E868FDF778FE00EE100AB8EEC00A91
:102DE00084ED030AB6F908102868FDF76DFE6080CF
:102DF00020802868A08094ED020ABDEEC00A10EE83
:102E0000101AE180B6F90810FDF75EFE00EE100A18
:102E10000A20B8EEC00A84ED050ABDE8704000F053
:102E2000AFBF00006461002004620020E050002079
:102E3000F45E0020505D002010B57D4803F0C4FC16
:102E40007B485030034603F0BFFC7A4803F0BCFCDB
:102E500078485030044603F0B7FC774803F0B4FCE0
:102E60000221DFED765AF0EE654A9FED755AF7EED6
:102E7000003AB0EE454AB0EE453AF0EE452A9FEDF5
:102E8000712AF0EE451AB0EE651AF0EE650AB2EE60
:102E9000040A694803F0C6FC0221F0EE654A9FED82
:102EA0006A6AF7EE003AB0EE453AB0EE464AF0EE06
:102EB000462AB0EE652AF0EE451AB0EE651AF0EE3D
:102EC000650AB0EE000A184603F0ACFC0221F0EEF1
:102ED000654AB0EE464AF7EE003AB0EE463AF0EEFA
:102EE000462AB0EE452AF0EE461AB0EE651AF0EE2C
:102EF000650ADFED566A2046B0EE660A03F092FCE2
:102F00000221F0EE654AB0EE464AF7EE003AB0EE26
:102F1000453AF0EE462A9FED4E2AF0EE451AB0EE05
:102F2000651AF0EE650AB7EE080A414803F07AFC2C
:102F30000221F0EE654AB0EE464AF7EE003AB0EEF6
:102F4000463A9FED447AF0EE472A9FED432AF0EE91
:102F5000461AB0EE651AF7EE000A9FED400A3548B2
:102F600003F060FCDFED3E7A0221F0EE654AB0EE40
:102F7000464AF7EE003AB0EE453AF0EE462AB0EE99
:102F8000672AF0EE451AB0EE651AF0EE650AB0EE6B
:102F9000660A344803F046FC0221F0EE654AB0EEC2
:102FA000464AF7EE003AB0EE463AF0EE472AB0EE67
:102FB000672AF0EE461AB0EE651AF0EE650A9FED4C
:102FC0002A0A2A4803F02EFC26480221F0EE654A20
:102FD000B0EE464AF7EE003AB0EE453AF0EE462A39
:102FE000B0EE672AF0EE451AB0EE651AF0EE650A0B
:102FF000B2EE0E0A503003F015FC1C480221BDE869
:103000001040F0EE654AB0EE464AF7EE003AB0EEF8
:10301000463AF0EE472AB0EE672AF0EE461AB0EED6
:10302000651AF0EE650AB3EE0E0A503003F0FABBF3
:103030006461002004620020D464002000000000CD
:1030400000401C46000048420060EA460000704212
:1030500000803B450000484300409C45000016436B
:103060000000FA44A462002000007A434463002078
:1030700002480021C181C18470470000F45E002035
:1030800090F82020012A07D0022A05D0416A41F495
:103090008021416201207047006842690A43426111
:1030A00000207047F0B590F820500468A468012D06
:1030B00005D0022D03D0416A41F480215DE014F077
:1030C000406F01D1E50055D5C4F30164022C03D94A
:1030D000416A41F4000150E00125A5401D608D6862
:1030E0004FF4C0739DB1CE6835434E6845EAC605BE
:1030F000066803EB0417F5514FF4C275076805EB3A
:1031000004150E697E51097D012905D009E00E885C
:10311000CD6845EA4655EBE701684E5946F480769E
:103120004E511179D579567941EA056195792D0489
:1031300045EA062529434FF4C676056806EB0416D2
:10314000A9511178D57841EA0561957852782D0416
:1031500045EA022211434FF4C475026805EB0415D9
:103160005151006803EB0411425842F001024250F1
:103170000020F0BD416A41F4001141620120F0BD20
:1031800010B590F82020012A07D0022A05D0416A04
:1031900041F480214162012010BD3B48D0F800225B
:1031A00042F00102C0F80022D0F8002222F47C5242
:1031B000C0F80022D0F800224B6A42EA0322C0F88D
:1031C00000220A7D02F01F0301229A40D0F81C322F
:1031D0009343C0F81C32CB69B3B9D0F80C32934397
:1031E000C0F80C328C894B6864F31F434C6900EBC8
:1031F000C404C4F840320C890B6864F31F434C6963
:1032000000EBC404C4F84432CB69012B16D1D0F8CA
:103210000C321343C0F80C320C884B6864F31F4324
:103220004C6900EBC404C4F840320C89CB6864F3E9
:103230001F434C6900EBC404C4F844328B69002B73
:10324000D0F804320ED01343C0F804320B69002BBF
:10325000D0F8143208D01343C0F81432096A012997
:1032600004D008E09343EFE79343F5E7D0F81C124E
:103270001143C0F81C12D0F8001221F00101C0F86F
:103280000012002010BD000000640040704730B5FF
:1032900090F82040012C05D0022C03D0416A41F463
:1032A00080215DE00468002955D02469A40754D02A
:1032B0004FF4D874056804EB01142D5915F004057A
:1032C000956005682D594ED0ED08556005682C595C
:1032D00004F00204D4604FF4DA74056804EB0114BE
:1032E0002D5905F00F05156105682D59C5F3072502
:1032F000956105682C59240C54614FF4DC72046804
:1033000002EB0112A4581C700468A458240A5C70D3
:103310000468A458240C9C700468A258120EDA7039
:103320004FF4DE72046802EB0112A4581C710468A9
:10333000A458240A5C710468A458240C9C71046885
:10334000A258120EDA71006881B1016941F02001C2
:103350000161002030BDE468A8E7416A41F4001132
:103360004162012030BD6D0D1560AFE7C16841F0CD
:103370002001C160EDE72DE9F05F054600680024FB
:103380004669D0F804908768D0F80CB0D0F810A047
:10339000D0F81880F10748D0F90714D001218160D6
:1033A000B80703D5284600F007FB0CE0780702D5E4
:1033B0004FF4006407E0380702D54FF4805402E070
:1033C000284600F0F7FAF80516D529684FF4807002
:1033D0008860B80503D5284600F001FB0CE07805AD
:1033E00002D544F4005407E0380502D544F4804483
:1033F00002E0284600F0F2FAF80316D529684FF4E7
:1034000080308860B80303D5284600F0EAFA0CE063
:10341000780302D544F4004407E0380302D544F4AD
:10342000803402E0284600F0DBFA300707D55FEA77
:10343000CB6004D52968102044F40074C86070077C
:103440004FF0080707D55FEA0B7004D52868C760FE
:10345000284600F0A9F9B00706D52868C06880079B
:1034600002D0284600F0A2F9700607D55FEACA60CC
:1034700004D52968102044F480640861B00607D59B
:103480005FEA0A7004D528680761284600F062FAEE
:10349000F00606D528680069800702D0284600F0AB
:1034A0005AFAB00308D55FEAC96005D5296810202B
:1034B0004860284600F050FAF00307D55FEA09702B
:1034C00004D528684760284600F08CFA300446D5B9
:1034D0005FEA497040D5F00504D55FEAC87001D0B5
:1034E00044F00104B00504D55FEA887001D544F0CA
:1034F0000204700504D55FEA487001D544F0040465
:10350000300529D518F0700F26D008F0700040283B
:1035100015D006DC102809D020280AD0302816D172
:103520000AE050280ED0602811D10EE044F00804C3
:103530000DE044F010040AE044F0200407E044F0F9
:10354000400404E044F0800401E044F480742868FE
:10355000816921F070018161296804204860002C94
:1035600005D0686A204368622846FFF78FFEBDE8F1
:10357000F09F70B5040003D094F8200010B104E06F
:10358000012070BD204600F081F82068016841F0FC
:103590000101016000F0B6FD0546052604E000F0DB
:1035A000B1FD401B0A2811D820684068C007F6D03A
:1035B0002068016821F00201016000F0A3FD0546CA
:1035C0000BE000F09FFD401B0A2806D9606A40F41A
:1035D0000030606284F82060D2E72068406880078D
:1035E000EFD4207E0128206801683DD021F08001C1
:1035F0000160607E01282068016838D021F0400118
:103600000160A07E01282068016833D021F02001EC
:103610000160E07E0128206801682ED041F0100191
:103620000160207F01282068016829D021F008016D
:103630000160607F01282068016824D021F0040126
:103640000160D4E902010843D4E90412114308439C
:103650006168491E08432168C8610020606201203A
:1036600084F82000002070BD41F08001C0E741F0E7
:103670004001C5E741F02001CAE721F01001CFE782
:1036800041F00801D4E741F00401D9E7F0B587B073
:10369000044614216846FCF73FFE3E4B3E48DFF8E7
:1036A000F0E01968D4F800C03B4A03250226092738
:1036B00010300024491CF4452AD11960012907D192
:1036C000016841F000710160006800F00070059031
:1036D000106840F0080010601068CDE9005600F056
:1036E0000800CDE9047069462C48CDE9024500F098
:1036F00003FC00220521132000F0A2FD132000F09E
:1037000091FD00220521142000F09AFD14203AE0DA
:10371000DFF88CE0F44538D1D0F800C04CF0806C74
:10372000C0F800C0D0F800C001290CF0806CCDF8C2
:1037300014C0196007D1016841F000710160006890
:1037400000F000700590106840F0020010601068F2
:1037500002AB00F0020005906020CDE9000683E88E
:10376000B00069460F4800F0C7FB002205213F204A
:1037700000F066FD3F2000F055FD002205214020AD
:1037800000F05EFD402000F04DFD07B0F0BD0000F0
:10379000006400403400002030380240000C024039
:1037A00000680040000402407047000070B55D49A9
:1037B00064248AB088427CD16B4602AA0021FFF7BC
:1037C00066FD049800283BD10598002838D106985A
:1037D000082835D1544840F2052204600298A0F22E
:1037E000052190422ED013DCA0F50071013905D0DF
:1037F000012903D0022901D0032921D14B4900EB33
:10380000400001EBC000A0F54050694618381BE0AD
:10381000474C484E4FF47A75042918D00C291BD018
:10382000FB290DD1684606F057FB84ED010A01A87B
:1038300006F052FB84ED020A4FF44070606135607F
:103840000AB070BD69463C48FDF74AFDF8E73A48C2
:1038500069461830FDF744FDBDF8000000EE100A7F
:10386000F8EE400A9FED350A80EE801A84ED001ACA
:10387000BDF8020000EE900AB8EE601AC1EE000A30
:10388000C4ED010ABDF8040001EE100AB8EE411AB9
:10389000C1EE001AC4ED021ABDF8060001EE100ACE
:1038A000B8EE411AC1EE001A9FED250AC4ED031AC5
:1038B00000E00CE020EE800AD4ED040AB8EE001A15
:1038C00040F2112000EE810A84ED040AB6E71D499A
:1038D0008842B5D107AB6A460021FFF7D8FC0298B1
:1038E0000028ADD103980028AAD104980828A7D1B0
:1038F000154804600098A0F50070023806D0012831
:103900000CD002289CD107A910489DE707A91048B0
:10391000FDF7E6FC0E48FDF73DFD91E70B4807A9D2
:10392000183891E7E0020020A4020020945E0020F5
:103930006C5F0020AC020020F45E00200000C84252
:103940009A99993E08030020A8020020545F0020A5
:10395000245F0020704770477047000070B5044630
:1039600090F82000012804D0606A40F400206062D2
:1039700018E0022084F820002068016821F001018D
:10398000016000F0BFFB05460EE000BF00F0BAFB8F
:10399000401B0A2808D9606A40F4003060620520A4
:1039A00084F82000012070BD20684068C007EDD178
:1039B000606270BD70470000054B0121054A9842C6
:1039C00001D111707047044B9842FBD15170704780
:1039D000E0020020C8000020080300207047704764
:1039E0007047704770472DE9F0410446876D00F03D
:1039F00089FB064694F835000025022806D0802071
:103A0000606584F834500120BDE8F08120680168C9
:103A100021F0160101602068416921F080014161B7
:103A2000206C08B9A06C20B12068016821F0080161
:103A300001602068016821F0010101600CE000F0E4
:103A400061FB801B052807D920206065032084F8CE
:103A5000350084F83450D7E720680068C007EED1FD
:103A600094F85C103F208840B860012084F835004D
:103A700084F834500020C7E790F83510022903D0AD
:103A80008021416501207047052180F835100068CC
:103A9000016821F001010160002070472DE9F84321
:103AA00004464FF00009CDF8009063484FF41651DA
:103AB000A56D0068B0FBF1F72E6894F85C10082043
:103AC00000FA01F131420FD021680A6852070BD584
:103AD0000A6822F004020A6094F85C108840A8602A
:103AE000606D40F00100606594F85C104FF00108D3
:103AF00008FA01F0304208D021684969090604D566
:103B0000A860606D40F00200606594F85C100420CD
:103B10008840304208D021680968890704D5A86028
:103B2000606D40F00400606594F85C1010208840DF
:103B3000304218D021680968090714D5A8602068A8
:103B40000168490304D50068000308D5A16C07E0AB
:103B50000168C90503D4016821F008010160216CE6
:103B600009B12046884794F85C10202088403042F4
:103B700031D021680968C9062DD5A86094F83500B0
:103B800005282068016806D0490347D5006800036E
:103B90001DD4616C1CE021F01601016020684169B0
:103BA00021F080014161206C08B9A06C20B120682F
:103BB000016821F00801016094F85C103F20884002
:103BC000A86084F8358084F83490216D1FE0E16BA3
:103BD00009B120468847606D00282BD0606DC00772
:103BE00014D0052084F835002068016821F0010117
:103BF00001600098401C0090B84203D8206800681B
:103C0000C007F6D184F8358084F83490E16C00293F
:103C100010D001B02046BDE8F04308470168C9054F
:103C2000D5D4016821F01001016084F8358084F852
:103C30003490CCE7BDE8F883440000202DE9F04142
:103C4000044600F05FFA06465CB1022084F83500B5
:103C5000002584F834502068016821F001010160DA
:103C60000DE00120BDE8F08100F04CFA801B052832
:103C700005D920206065032084F83500F2E720682C
:103C80000068C007F0D12268116820480140D4E9DB
:103C900001031843D4E903363343184363691843D7
:103CA000A3691843E3691843236A18430843616A08
:103CB000042903D1D4E90B13194308431060206889
:103CC0004069666A20F0070130460E430127042848
:103CD0000CD1A06A0643E06A40B12046FDF798FF88
:103CE00020B14020606584F83570BAE720684661ED
:103CF0002046FDF779FF94F85C203F2191408160D8
:103D0000656584F835700020ACE700003F8010F056
:103D10002DE9F0410446866D90F834000025012815
:103D20000DD0012084F8340094F835700020012F64
:103D300007D084F8340002252846BDE8F08102202F
:103D4000FBE7022784F8357060652046FDF78AFF9F
:103D500094F85C103F208840B0602068016841F012
:103D600016010160206C20B12068016841F0080153
:103D700001602068016841F001010160DCE700009A
:103D800070B5044600F0BEF90546601C02D0044838
:103D90000078044400F0B6F9401BA042FAD370BD8D
:103DA000380000202DE9F047044622480F46017EE6
:103DB00001290AD00121804601764CF2503948464B
:103DC000FEF774FA020003D02FE00220BDE8F0876E
:103DD0004FF0FF3038602068174D012801D0A668E9
:103DE0001CE0207C6168FEF7CFF94846FEF75EFADA
:103DF0000246286820F00400286014E0217C304648
:103E0000FEF770F94846FEF751FA0200286820F0E4
:103E1000FA00286001D03E6005E0761CD4E902106B
:103E20000844B042EAD8FEF785F9002188F8181056
:103E30001046CBE7A4070020103C0240034801686D
:103E400041F000410160002070470000103C02403A
:103E50002DE9F0471B4E05461446307E1F46894625
:103E6000012808D0012030764CF250384046FEF749
:103E70001DFA18B114E00220BDE8F0879DB1012DB4
:103E800016D0022D19D022463B464846FEF7A0F92F
:103E90004046FEF70BFA0C490A6822F001020A605C
:103EA00000213176E8E7E1B24846FEF781F9EFE715
:103EB000A1B24846FEF7A2F9EAE721464846FEF7D6
:103EC000AFF9E5E7A4070020103C024007490020B5
:103ED0000A68002A09DA054A054B0C3A1360054BBB
:103EE00013600968002900DA01207047103C024085
:103EF00023016745AB89EFCD2DE9F84FDFF8BCA171
:103F00000022012503264FF00F090AF1040BAAF144
:103F1000040E00BF0B6805FA02F42340A34270D1DF
:103F20000F7907F00307012F01D0022F16D1876800
:103F30004FEA420806FA08FC27EA0C07D1F80CC041
:103F40000CFA08FC4CEA070CC0F808C04768A74305
:103F50000C79C4F3001494403C4344600C79E4436E
:103F6000A4070AD0C4684FEA420C06FA0CF7BC4317
:103F70008F6807FA0CF72743C7600C7904F0030435
:103F8000022C12D1D40800EB840CDCF82040570737
:103F9000FF0E09FA07F824EA0804D1F8108008FA9D
:103FA00007F848EA0408CCF8208004684FEA420C7D
:103FB00006FA0CF7BC430F7907F0030707FA0CF772
:103FC000274307604C6814F4403F70D03C4C27688E
:103FD00047F480472760246822F0030704F48044F4
:103FE0000094384C07EB040CDCF8084897074FEABC
:103FF000177809FA08F7BC43334FB84202D10027BB
:1040000024E054E0314FB84201D101271EE0304F87
:10401000B84201D1022719E02E4FB84201D103273F
:1040200014E02D4FB84201D104270FE02B4FB842C6
:1040300001D105270AE02A4FB84201D1062705E041
:10404000284FB84201D1072700E0082707FA08F7F0
:104050002743CCF80878DAF800405746D1F804C076
:104060009C435FEACC2C00D51C433C60DBF800404D
:104070005F46D1F804C09C435FEA8C2C00D51C43FA
:104080003C60DEF800407746D1F804C09C435FEA0C
:104090008C3C00D51C433C60084F083F3C68D1F87D
:1040A00004C09C435FEACC3C00D51C433C60521CDE
:1040B000102AFFF42FAFBDE8F88F0000083C014044
:1040C0004438024000300140000002400004024039
:1040D00000080240000C02400010024000140240A0
:1040E00000180240001C0240426921EA02030A4013
:1040F00043EA0241816170470AB181617047090456
:10410000FBE700000148806870470000380000208D
:1041100002488168027811448160704738000020AD
:104120000B4810B5016841F400710160016841F469
:1041300080610160016841F480710160032000F03A
:104140009FF80F2000F006F800F050F8002010BD96
:10415000003C024030B50546204887B00024016885
:1041600041F001010160006806A900F00100009023
:1041700001A800F031F90498B0B100F04DF9400009
:1041800017494FF08042B0FBF1F11648491E02601A
:1041900040F2E732C0E90324C0E90114846100F071
:1041A0004FFD040003D015E000F036F9E8E70D48B4
:1041B00000F092FD04000DD11C2000F033F8102D0A
:1041C00007D2002229461C2000F03AF80648056074
:1041D00000E0012407B0204630BD00004038024016
:1041E00040420F005C0700203C0000200C4882B0D9
:1041F000016841F480410160006800F48040009053
:104200000748001F016841F08051016000680022EA
:1042100000F0805000900F21901E02B000F010B806
:1042200044380240002809DB00F01F0201219140C0
:104230004009800000F1E020C0F800117047000044
:10424000F0B40E4B1B680C46C3F30223C3F1070501
:10425000042D00D90425191D072901D2002300E0EF
:10426000DB1E012606FA05F1491E214099409E40B9
:10427000761E16403143F0BC04F06CB80CED00E043
:10428000064900F0070208684FF6FF03184040EAAD
:104290000220034A10430860704700000CED00E064
:1042A0000000FA052DE9F0470E46050065D0DFF85D
:1042B0001481D8F80000F7B200F00700B04207D22E
:1042C00088F80070D8F8000000F00700B04254D120
:1042D00028683D4C810712D5400703D5206840F47B
:1042E000E05020602878000703D5206840F4604043
:1042F00020602068A96820F0F0000843206028783A
:10430000C0072DD0304968680839012812D002282A
:1043100013D0032811D00968890700292DDA2168F4
:1043200021F0030101432160FFF7ECFE814641F2D9
:10433000883A0EE009688903EFE709688901ECE72C
:10434000FFF7E0FEA0EB0901514502D90320BDE8CB
:10435000F0872068696800F00C00B0EB810FEFD1A6
:10436000D8F80010404601F00701B14207D90770A4
:10437000006800F00700B04201D00120E7E728788C
:10438000400705D52068E96820F4E0500843206024
:104390002878000706D52068296920F4604040EAA3
:1043A000C100206000F058F82168084AC1F30311E9
:1043B000515CC8400649086006480068FFF7CAFE1D
:1043C0000020C4E7003C02400838024004C700084F
:1043D000440000203C0000200F2202600C4A1368B9
:1043E00003F003034360136803F0F0038360136872
:1043F00003F4E053C36012684FF4E05303EAD202BF
:1044000002610448006800F007000860704700007F
:1044100008380240003C0240044805490068096829
:10442000044AC1F38221515CC84070474400002017
:104430000838024014C700080448054900680968A4
:10444000044AC1F34231515CC84070474400002027
:104450000838024014C70008154810B5006810F06D
:104460000C02144813D01449042A0FD0082A0ED184
:104470000F4C241F2268236802F03F025B0207D51D
:104480002068C0F38810A0FB010106E0084610BDBB
:104490002168C1F38811A1FB00010023FBF7F2FEA4
:1044A0002168C1F30141491C4900B0FBF1F010BD86
:1044B000083802400024F400001BB7002DE9F84F33
:1044C00004006ED02078DFF84C93C007A9F10405F2
:1044D0004AD009F104000168C1F38101012908D023
:1044E0000068C0F3810002280AD1D9F80000400218
:1044F00006D52868800337D560680028E1D033E00E
:104500006068B0F5803F10D0B0F5A02F286810D0BB
:1045100020F480302860286820F4802028606068BB
:10452000A8B1FFF7EFFD06460DE0286840F48030A3
:10453000F4E740F480202860F7E700BFFFF7E2FDD2
:10454000801B642873D828688003F7D50CE0FFF738
:10455000D9FD064605E000BFFFF7D4FD801B6428A7
:10456000F0D828688003F7D42078DFF8AC82800781
:104570004FF0000A3ED5A748001D016811F00C0F4E
:1045800008D00068C0F3810002280BD1D9F80000E0
:10459000400207D42868800716D5E068012800D1BA
:1045A00012E033E1E068B8B10120C8F80000FFF77D
:1045B000A9FD064605E000BFFFF7A4FD801B022809
:1045C000C0D828688007F7D52868216920F0F8004E
:1045D00040EAC10028600DE0C8F800A0FFF792FD96
:1045E000064604E0FFF78EFD801B02281FD82868CE
:1045F0008007F7D42078000722D5864F8748616965
:10460000703771B101210160FFF77CFD064604E0BF
:10461000FFF778FD801B022809D838688007F7D596
:104620000EE0C0F800A0FFF76DFD064605E082E051
:10463000FFF768FD801B02287DD838688007F7D413
:104640002078400768D5DFF8CCB100270BF13C0B90
:10465000DBF80000C0000BD4DBF8001041F0805103
:10466000CBF80010DBF80000012700F0805000902C
:104670006B4E3068C00510D4306840F480703060F4
:10468000FFF740FD009005E0FFF73CFD0099401A60
:10469000022850D83068C005F6D55E4EA0686C364A
:1046A00001280FD00528306810D020F001003060BC
:1046B000306820F004003060A068B8B1FFF722FD38
:1046C00000900FE0306840F00100F4E740F0040093
:1046D0003060F7E7FFF716FD0099411A41F2883084
:1046E000814266D830688007F4D50EE0FFF70AFDF6
:1046F000009007E0FFF706FD0099411A41F288306B
:10470000814256D830688007F4D42FB1DBF800100E
:1047100021F08051CBF80010A069C8B33D49091DB4
:104720000968C1F3810102294AD00228504607D006
:10473000C8F8600000E03CE0FFF7E4FC04463BE022
:104740004746C8F86000FFF7DDFC064605E000BFFD
:10475000FFF7D8FC801B02282BD828688001F7D4EB
:10476000D4E907010843A16A2E4A490802EB014136
:10477000626A41EA8211084394F82C1040EA016110
:10478000C9F8001001203866FFF7BCFC044606E0BB
:104790003EE000BFFFF7B6FC001B022809D82868DE
:1047A0008001F7D534E000BFFFF7ACFC001B022806
:1047B00002D90320BDE8F88F28688001F4D427E0EF
:1047C0000128F7D0D9F80000E26900F48001914295
:1047D0001CD1226A00F03F01914217D147F6C07107
:1047E000626A0140B1EB821F10D1A26A4FF0FF3321
:1047F00000F4403103EB5202B1EB024F06D194F8C2
:104800002C1000F07060B0EB016F01D00120D1E7F7
:104810000020CFE70438024000004742800E4742A4
:10482000007000400000FFFF70B5040009D0606A0E
:10483000002540B125616561A56294F8510040B141
:104840000CE0012070BD6068B0F5827FF4D0E561B6
:10485000F2E784F85050204600F044F8022084F833
:1048600051002068016821F040010160A088218981
:1048700000F4827001F404410843A18901F400614D
:104880000843217C01F002010843217D01F0010170
:104890000843218B01F400710843217F01F03801A6
:1048A000084394F8201001F080010843218D01F4A1
:1048B0000051084321680860A069042101EA104002
:1048C00094F8241001F01001084321684860206822
:1048D000C16921F40061C1616565012084F851005E
:1048E000002070BDF0B587B0044614216846FBF780
:1048F00013FD1C492068884232D11B4800240168FE
:1049000041F480510160006800F480500590164821
:104910001438016841F002010160016801F00201F0
:104920000591016841F0010101600068022500F075
:10493000010005901820CDE9000502AA03260527ED
:1049400082E8D00069460948FFF7D6FA8020CDE911
:10495000000502AA694682E8D0000548FFF7CCFAB4
:1049600007B0F0BD0030014044380240000402406E
:10497000000002402DE9F84F044690F8500000274F
:104980000A9E1D4692468B464FF0010901280ED023
:10499000012084F85000FFF7B5FB804694F85100E1
:1049A000616801280CD0B1F5827F07D102E00220B6
:1049B000BDE8F88FA16809B9042801D00227C2E038
:1049C000BBF1000F27D0BAF1000F24D01DB394F82B
:1049D0005100042802D0052084F8510000206065B1
:1049E000C4F838A0E587A587C4F830B0E586A58669
:1049F0002064606420680168490603D4016841F0BE
:104A000040010160E068B0F5006F606805D0E8B370
:104A1000012D46D07FE0012795E008B1012D39D165
:104A2000206B21680088C860206B801C2063E08EAA
:104A3000401EE0862EE02068816889070FD5E18E50
:104A400069B1B9F1010F0AD1216B0988C160206BEE
:104A5000801C2063E08E401EE0864FF00009206835
:104A60008168C9070CD0E18F51B1C068A16B088083
:104A7000A06B801CA063E08F401EE0874FF001090F
:104A8000FFF740FBA0EB0800B04200E009E001D3D3
:104A9000701C50D1E08E0028CDD1E08F0028CAD103
:104AA0003FE0206B216800780873206B401C206376
:104AB000E08E401EE0862EE02068816889070FD5D1
:104AC000E18E69B1B9F1010F0AD1216B0978017347
:104AD000206B401C2063E08E401EE0864FF00009F2
:104AE00020688168C9070CD0E18F51B1C068A16B03
:104AF0000870A06B401CA063E08F401EE0874FF061
:104B00000109FFF7FFFAA0EB0800B04202D3701CC6
:104B100001D010E07EB1E08E0028CDD1E08F0028DA
:104B2000CAD142463146204601F0B6FF28B10127DE
:104B30002020606507E0032705E0A06818B9206819
:104B4000C16880680090012084F85100002084F83A
:104B5000500038462CE77047704710B590F83C205D
:104B6000012A22D0012280F83C20CA688C6822F4F5
:104B7000407222434C6822F4806222430C6822F483
:104B8000006222430C6922F4805222434C6922F4D1
:104B900000522243C969002322F480420A4301687B
:104BA0004A6480F83C30002010BD022010BD000097
:104BB00070B590F83C20012A32D0012480F83C40A6
:104BC000022280F83D2003685A689D6822F0700632
:104BD0000A6832435A60134B02689A4214D0B2F109
:104BE000804F11D0104B9A420ED0104B9A420BD0EE
:104BF0000F4B9A4208D00F4B9A4205D00E4B9A4267
:104C000002D00E4B9A4204D1496825F08003194323
:104C1000916080F83D40002180F83C10084670BD4E
:104C2000022070BD00000140000400400008004068
:104C3000000C00400004014000400140001800400A
:104C400010B5040003D094F83D0010B107E0012036
:104C500010BD002084F83C00204600F01FF8022020
:104C600084F83D00211D206802F0D4FE012084F864
:104C7000460084F83E0084F83F0084F8400084F841
:104C8000410084F8420084F8430084F8440084F82A
:104C9000450084F83D00002010BD000008B5006804
:104CA0000B49884212D10B48016841F010010160A4
:104CB0000068002200F01000009005213620FFF768
:104CC000BFFABDE808403620FFF7ACBA08BD0000C7
:104CD000001000404038024090F83D10012901D0FA
:104CE00001207047022180F83D100168CA6842F037
:104CF0000102CA6000681149884214D0B0F1804FA7
:104D000011D00F4988420ED00E4988420BD00E496F
:104D1000884208D00D49884205D00D49884202D00A
:104D20000C49884204D1816801F00701062903D0AB
:104D3000016841F00101016000207047000001405E
:104D40000004004000080040000C00400004014046
:104D50000040014000180040704770B504460068EC
:104D600001694FF00005C943890715D4C168C943DB
:104D7000890711D4E91E016101202077206880692C
:104D80008007204602D0FFF7E7FF04E000F0DAF8E2
:104D9000204600F08DF9257720680169C94349074D
:104DA00017D4C168C943490713D46FF004010161E6
:104DB000022020772068806910F4407F204602D0CE
:104DC000FFF7CAFF04E000F0BDF8204600F070F9DC
:104DD000257720680169C943090716D4C168C9430A
:104DE000090712D46FF008010161042020772068C0
:104DF000C0698007204602D0FFF7AEFF04E000F054
:104E0000A1F8204600F054F9257720680169C943CC
:104E1000C90617D4C168C943C90613D46FF010017D
:104E20000161082020772068C06910F4407F204687
:104E300002D0FFF791FF04E000F084F8204600F074
:104E400037F9257720680169C943C90708D1C168C6
:104E5000C943C90704D1891E0161204600F08EF9BB
:104E600020680169C943090609D4C168C943090614
:104E700005D46FF0800101612046FFF76CFE2068C9
:104E80000169C943490609D4C168C943490605D423
:104E90006FF040010161204600F0A6F92068016929
:104EA000C94389060BD4C168C943890607D46FF08A
:104EB000200101612046BDE87040FFF74DBE70BD86
:104EC00010B586B0044614216846FBF725FA23681E
:104ED000174C002117480222A34212D1036843F065
:104EE00010030360006800F0100005904FF4D440F8
:104EF0000090CDE901210120CDE9031069460E485B
:104F000012E00E4CA34211D1036843F00803036082
:104F1000006800F00800059020140090CDE9012100
:104F2000CDE9031269460648FEF7E6FF06B010BD5C
:104F300000000140303802400010024000080040EC
:104F4000000C0240704770B5044690F83C00002603
:104F50000D4601280FD0012084F83C006AB1042AD4
:104F60001DD0082A2FD00C2A3FD00126002084F81B
:104F70003C00304670BD022070BD206802F0BCFDD0
:104F80002068816941F0080181612068816921F010
:104F900004018161206881692A69114311E0206858
:104FA00002F0DAFD2068816941F4006181612068C6
:104FB000816921F480618161206881692A6941EAFF
:104FC00002218161D2E7206802F0FCFD2068C169FE
:104FD00041F00801C1612068C16921F00401C1618B
:104FE0002068C1692A69114311E0206802F01EFEA1
:104FF0002068C16941F40061C1612068C16921F480
:105000008061C1612068C1692A6941EA0221C161E8
:10501000ACE710B5040003D094F83D0010B107E0F0
:10502000012010BD002084F83C00204600F01EF84E
:10503000022084F83D00211D206802F0EBFC0120D5
:1050400084F8460084F83E0084F83F0084F840006D
:1050500084F8410084F8420084F8430084F8440056
:1050600084F8450084F83D00002010BD08B50068B4
:105070000C49884208D10C48016841F001010160E7
:10508000006800F001000BE00849884209D1064899
:10509000001F016841F004010160006800F0040095
:1050A000009008BD00000140443802400008004064
:1050B0007047000010B50446022249B104290ED001
:1050C000082913D094F84100012816D0012010BD02
:1050D00094F83E000128F9D184F83E200FE094F8BE
:1050E0003F000128F2D184F83F2008E094F8400006
:1050F0000128EBD184F8402001E084F8412001220E
:10510000206802F0EBFC16492068164A884201D05C
:10511000904203D1436C43F40043436420688842C7
:1051200013D0B0F1804F10D00F4988420DD00F49F5
:1051300088420AD00E49884207D0904205D00D49D6
:10514000884202D00C49884204D1816801F00701ED
:10515000062903D0016841F001010160002010BD63
:10516000000001400004014000040040000800402D
:10517000000C0040004001400018004010B50446FB
:105180000068B0F1804F01D1FEF7C2FF11492068DD
:1051900088421DD11048F0EE000A9FED121A016DF1
:1051A000491C0165B0F9120000EE100A0B48B8EE78
:1051B000C00A20EE200ABDEEC00A80ED000A0848B1
:1051C000B8EEC00AD0ED000A40EE010AC0ED000AB8
:1051D00010BD000000100040405E002000000020D4
:1051E000D402002082A8FB37704770477047000048
:1051F000F8B5016804460868CA684B6910F00F0FDB
:105200004FF0000559D003F0010602F490773743C0
:1052100065D0C10705D0D10503D5216C41F001014E
:105220002164410705D5D90703D0216C41F0020163
:105230002164810705D5D90703D0216C41F0040111
:105240002164010707D502F02001314303D0216C0E
:1052500041F008012164216C00293AD0800604D570
:10526000900602D5204602F091FD20684069216C2D
:10527000C0F38010090700D460B3204602F051FD4E
:1052800020684069400621D52068143050E8001F8E
:1052900021F0400140E80012002AF5D1A06BA8B12E
:1052A0006C490165A06BFEF7E7FB002811D0A06BED
:1052B000016D01B0BDE8F040084783060FD59306A5
:1052C0000DD52046BDE8F84002F060BD2046FFF74E
:1052D0008DFFF8BD2046FFF789FF2564F8BD266BDA
:1052E0002023012E79D1C60677D5D60675D5086854
:1052F000486800904869400640D5A16B086840683E
:105300000004000CEAD0A28D8242E7D9E085C8698A
:10531000B0F5807F2DD020680C3050E8001F21F4BC
:10532000807140E80012002AF5D12068143050E85E
:10533000001F21F0010140E80012002AF5D1206889
:10534000143050E8001F21F0400140E80012002A0C
:10535000F5D184F83E30256320680C3050E8001FFA
:1053600021F0100140E80012002AF5D1A06BFEF7F1
:105370003AFBA08DE18D401A81B229E0A08DE18D2C
:10538000401A81B2E08D0028A8D00029A6D020685C
:105390000C3050E8002F22F4907240E80026002ED6
:1053A000F5D12068143050E8002F22F0010240E8C7
:1053B0000026002EF5D184F83E30256320680C309D
:1053C00050E8002F22F0100240E80023002BF5D116
:1053D0002046FFF70AFFF8BDFFE705062BD51506A7
:1053E00029D594F83D002128F5D1A068B0F5805F5B
:1053F00001D12069B0B1206A411C21622168007886
:105400004860E08C401E0004000CE084E3D120687A
:10541000C16821F08001C1602068C16841F040018D
:10542000C160D8E7206A0088C0F308004860206A9D
:10543000801C2062E5E74006CDD55006CBD5CA6872
:10544000204622F04002CA6084F83D3000F0C6F9E0
:10545000C1E700007D7C000870B5040004D094F81A
:105460003D00002510B106E0012070BD84F83C50DD
:10547000204600F023F8242084F83D002068C1680D
:1054800021F40051C160204602F0E0FC206801696F
:1054900021F4904101612068416921F02A014161B4
:1054A0002068C16841F40051C1602564202084F85F
:1054B0003D0084F83E00002070BD00002DE9F04F53
:1054C00087B0044614216846FAF726FF9448DFF8AF
:1054D0004C821438D4F800C0914B02210322871566
:1054E000002506154FF0070A4FF0006BC4456BD13D
:1054F000D3F800C04CF0100CC3F800C01B6803F0D8
:1055000010030593036843F002030360036803F08C
:1055100002030593036843F00103036000688846B3
:1055200000F0010005908020CDE900080DF1080C85
:1055300091468CE8200669467A48FEF7DDFC70103B
:10554000CDE900080DF10808694688E8200676488C
:10555000FEF7D2FCDFF8D881744940464FF4003A98
:1055600002C0D946E0E802B5E0E8035640F8045C22
:1055700080E8A0044046C8F82450FEF75FFB08B15D
:10558000FCF7ADFD6A4F6948C4F838806037783061
:10559000C8F83840E7E80209402061C7644847F886
:1055A00014596030BD61C7E9075A7D62FEF746FBBA
:1055B00008B1FCF794FD6763002205212520BC6338
:1055C000FEF73EFE252046E0DFF86881C44547D15E
:1055D000534B1B1FD3F800C04CF4802CC3F800C001
:1055E0001B6803F480230593036843F004030360FE
:1055F000006800F0040005904FF440608DE823003F
:10560000CDE9032A69464C48FEF776FCDFF8208195
:105610004A4908F1C0084046C8F80010C0E901B581
:10562000C0E90356C8F814504FF44031C8F8185078
:10563000C8E90771C8F82450FEF700FB08B1FCF771
:105640004EFDC4F83880002205212720C8F83840D4
:10565000FEF7F6FD2720FEF7E5FD07B0BDE8F08F69
:10566000DFF8DC80C445F8D1D3F800C04CF0200C42
:10567000C3F800C01B6803F020030593036843F0E0
:1056800040030360006800F0400005904FF4844040
:105690008DE823000820CDE9032069462948FEF75C
:1056A0002BFC2249DFF8A080183940464FF02069D2
:1056B000C8F80010C0E90195C0E90356C8F81450B5
:1056C000C0E90657C8F82050C8F82450FEF7B6FACB
:1056D00008B1FCF704FD1C4F1448C4F8388060374B
:1056E0006030C8F83840E7E80209402061C7164832
:1056F00047F814596030BD61FD613D627D62FEF77F
:105700009DFA08B1FCF7EBFC6763002205214720F6
:10571000BC63FEF795FD47209DE7000000100140A7
:10572000443802400004024000000240406402404D
:105730007C0500200048004000080240286002402C
:1057400000140140001802409C0600207047000031
:1057500070B5044690F83D00202836D191B38AB345
:1057600094F83C00012830D0012084F83C002162EC
:10577000A284E28400252564212084F83D00636B27
:105780001348D863636B13481864636B1248D8647A
:10579000606B134605652668606B321DFEF7B8FA2C
:1057A00021686FF04000086084F83C502068143095
:1057B00050E8001F41F0800140E80012002AF5D1B6
:1057C000002070BDFFE70120FBE70220F9E70000A1
:1057D000D77C0008197D00088D7C00087047704751
:1057E000FEE7000010B5FF4CFF482DED108B94ED47
:1057F000000AD4ED000A20EE20FA94ED000AD4ED60
:10580000010A20EE20CA94ED000AD4ED020A60EEEF
:1058100020BA94ED000AD4ED030A20EE202A94ED7C
:10582000010AD4ED010A20EE20DA94ED010AD4ED4C
:10583000020A60EE201A94ED010AD4ED030A20EE6C
:1058400020BA94ED020AD4ED020A60EE20AA94ED8B
:10585000020AD4ED030A20EE20AA94ED030AD4ED47
:10586000030A60EE209A90ED0B0A84ED090A90ED90
:105870000C0A84ED0A0A90ED0D0A84ED0B0AB0F9CA
:10588000001000EE101AB8EEC00A84ED0C0AB0F950
:10589000021000EE101AB8EEC00A84ED0D0AB0F93D
:1058A000041000EE101AB8EEC00A84ED0E0AB0F92A
:1058B000201000EE101AB8EEC00A84ED0F0AB0F9FD
:1058C000221000EE101AB8EEC00A84ED100AB0F9EA
:1058D000241000EE101AB8EEC00A84ED110A006D13
:1058E000606160692169401A00EE100AB8EE400A52
:1058F000DFEDBE0A6069C0EE208A206194ED0C0ADB
:10590000D4ED0C0A94ED0D1A20EE200AD4ED0D0A08
:1059100000EE810AD4ED0E0A94ED0E1A00EE810A13
:1059200004F014FED4ED0C0A60EE800AC4ED0C0AFB
:10593000D4ED0D0A60EE800AC4ED0D0AD4ED0E0A16
:1059400020EE800A84ED0E0A9FEDA90AB6EE001A39
:1059500084ED0F0A84ED100A84ED110A71EE6A0AD3
:1059600094ED0F0AB0EE008A31EEC2EA20EE080A8A
:1059700070EEE9EA7BEE2B2A71EE821A31EE4D1AB7
:1059800060EE2E0A94ED100A7BEE6BCA31EE692AA6
:1059900020EE080A71EE6ADA40EE0E0A94ED110A62
:1059A00020EE080A40EE220A94ED0F0A20EE080AC3
:1059B00060EEA00A20EE210AD4ED101A61EE881ADA
:1059C00001EE820AD4ED111A3AEE4C2A61EE881AE1
:1059D00001EE820AD4ED0F1A3AEE0C2A61EE881A13
:1059E00040EE000A21EEAC9AD4ED101A10EE900AA7
:1059F00061EE881A01EE829AD4ED111A61EE881ACE
:105A000001EEAD9AFAF72CFE41EC100B03F098F979
:105A100051EC100BFAF768FE00EE900A3CEE0A0A11
:105A20003FEE4D1A60EE883A69EE080A20EE083A19
:105A300031EE6A1A23EE8E2A63EEAE1A94ED114A05
:105A400031EE291A00EE802A3BEE8B0A40EEAC1AAA
:105A50006CEE882A23EE800AD4ED0E3A00EEAD0AF1
:105A6000D4ED0D0A60EE810A43EEC30AD4ED103A7C
:105A700063EE803A44EE423A94ED0C4A70EEA30A8B
:105A8000D4ED0E3A63EEA23AF5EEC00A44EE413A86
:105A900094ED111A94ED0F4A21EE211A04EE401AEA
:105AA00033EE810A94ED0C1A21EE031A94ED0D3AAF
:105AB00003EE621AD4ED0F2A22EE822AD4ED102AC8
:105AC00002EEE12A31EE021AF1EE10FA41D0B5EE03
:105AD000C00AF1EE10FA3CD0B5EEC01AF1EE10FAA1
